{
  "contractName": "Storage",
  "abi": [
    {
      "anonymous": false,
      "inputs": [
        {
          "indexed": false,
          "internalType": "string",
          "name": "identity",
          "type": "string"
        },
        {
          "indexed": false,
          "internalType": "string",
          "name": "data",
          "type": "string"
        }
      ],
      "name": "DataSaved",
      "type": "event"
    },
    {
      "constant": true,
      "inputs": [
        {
          "internalType": "string",
          "name": "identity",
          "type": "string"
        }
      ],
      "name": "get",
      "outputs": [
        {
          "internalType": "string",
          "name": "",
          "type": "string"
        }
      ],
      "payable": false,
      "stateMutability": "view",
      "type": "function"
    },
    {
      "constant": false,
      "inputs": [
        {
          "internalType": "string",
          "name": "identity",
          "type": "string"
        },
        {
          "internalType": "string",
          "name": "data",
          "type": "string"
        }
      ],
      "name": "set",
      "outputs": [],
      "payable": false,
      "stateMutability": "nonpayable",
      "type": "function"
    }
  ],
  "bytecode": "0x608060405234801561001057600080fd5b506106ca806100206000396000f3fe608060405234801561001057600080fd5b50600436106100365760003560e01c8063693ec85e1461003b578063e942b51614610156575b600080fd5b6100e16004803603602081101561005157600080fd5b81019060208101813564010000000081111561006c57600080fd5b82018360208201111561007e57600080fd5b803590602001918460018302840111640100000000831117156100a057600080fd5b91908080601f016020809104026020016040519081016040528093929190818152602001838380828437600092019190915250929550610285945050505050565b6040805160208082528351818301528351919283929083019185019080838360005b8381101561011b578181015183820152602001610103565b50505050905090810190601f1680156101485780820380516001836020036101000a031916815260200191505b509250505060405180910390f35b6102836004803603604081101561016c57600080fd5b81019060208101813564010000000081111561018757600080fd5b82018360208201111561019957600080fd5b803590602001918460018302840111640100000000831117156101bb57600080fd5b91908080601f016020809104026020016040519081016040528093929190818152602001838380828437600092019190915250929594936020810193503591505064010000000081111561020e57600080fd5b82018360208201111561022057600080fd5b8035906020019184600183028401116401000000008311171561024257600080fd5b91908080601f016020809104026020016040519081016040528093929190818152602001838380828437600092019190915250929550610437945050505050565b005b606061028f6105e0565b6000836040518082805190602001908083835b602083106102c15780518252601f1990920191602091820191016102a2565b518151600019602094850361010090810a8201928316921993909316919091179092529490920196875260408051978890038201882080546060601f60026001841615909902909601909116969096049384018390049092028801850181528701828152909550869450928592508401828280156103805780601f1061035557610100808354040283529160200191610380565b820191906000526020600020905b81548152906001019060200180831161036357829003601f168201915b50505050508152602001600182018054600181600116156101000203166002900480601f0160208091040260200160405190810160405280929190818152602001828054600181600116156101000203166002900480156104225780601f106103f757610100808354040283529160200191610422565b820191906000526020600020905b81548152906001019060200180831161040557829003601f168201915b50505091909252505050602001519392505050565b6040518060400160405280838152602001828152506000836040518082805190602001908083835b6020831061047e5780518252601f19909201916020918201910161045f565b51815160209384036101000a60001901801990921691161790529201948552506040519384900381019093208451805191946104bf945085935001906105fa565b5060208281015180516104d892600185019201906105fa565b509050507fbb7ba689bfe3b74780e467c4bd8e81ee9847d622e21163d9ef023879ea06b9818282604051808060200180602001838103835285818151815260200191508051906020019080838360005b83811015610540578181015183820152602001610528565b50505050905090810190601f16801561056d5780820380516001836020036101000a031916815260200191505b50838103825284518152845160209182019186019080838360005b838110156105a0578181015183820152602001610588565b50505050905090810190601f1680156105cd5780820380516001836020036101000a031916815260200191505b5094505050505060405180910390a15050565b604051806040016040528060608152602001606081525090565b828054600181600116156101000203166002900490600052602060002090601f016020900481019282601f1061063b57805160ff1916838001178555610668565b82800160010185558215610668579182015b8281111561066857825182559160200191906001019061064d565b50610674929150610678565b5090565b61069291905b80821115610674576000815560010161067e565b9056fea265627a7a72315820a32f05ce8d2f05f669f79bbbb49461f6fcce911ba64a773e0f5ca421e29d236f64736f6c63430005100032",
  "source": "pragma solidity >=0.5.0 <0.8.0;\n\ncontract Storage {\n    struct Item {\n        string identity;\n        string data;\n    }\n\n    mapping(string => Item) List;\n\n    event DataSaved(string identity, string data);\n\n    function get(string memory identity) public view returns (string memory) {\n        Item memory _List = List[identity];\n\n        return _List.data;\n    }\n\n    function set(string memory identity, string memory data) public {\n        List[identity] = Item(identity, data);\n\n        emit DataSaved(identity, data);\n    }\n}\n",
  "sourcePath": "/Users/thihathit/Desktop/Git/freelance/kopaing/nft/client/contracts/Storage.sol",
  "compiler": {
    "name": "solc",
    "version": "0.5.16+commit.9c3226ce.Emscripten.clang"
  },
  "schemaVersion": "3.4.1",
  "updatedAt": "2021-05-27T22:24:23.063Z",
  "networkType": "ethereum",
  "devdoc": {
    "methods": {}
  },
  "userdoc": {
    "methods": {}
  }
}